:070003000000007F34DFFE66
:01000A0022D3
:0B000E000000007F0B7EBEDEFEDFFC6A
:0100190022C4
:0B0A2F000000007F0D7EE5DEFEDFFC16
:010A3A002299
:10004A007DA57C06ED1D70011C144C70F7EF1F7026
:06005A00011E144E70EAC5
:01006000227D
:1002CB00EFD3940540037F012212015CFED394030C
:1002DB0040037F0222EF7041EE700B900001120180
:1002EB0075F45293529412015CB4010B90000112FD
:1002FB0001754293F4529412015CFEB4020A900011
:10030B000112017542934294EEB4030D9000011259
:10031B000175FEF45293EE4294EF640170431201A7
:10032B005CFE700B900001120175F452915292EE2B
:10033B00B4010B9000011201754291F4529212011B
:10034B005CB4020A900001120175429142921201B3
:10035B005CB4030D900001120175FEF45291EE4254
:10036B0092EF6402704312015CFE700B900001125D
:10037B000175F452955296EEB4010B9000011201E7
:10038B00754295F4529612015CB4020A9000011268
:10039B0001754295429612015CB4030D9000011257
:1003AB000175FEF45295EE4296EF64037043120111
:1003BB005CFE700B900001120175F452B152B2EE5B
:1003CB00B4010B90000112017542B1F452B212014B
:1003DB005CB4020A90000112017542B142B21201E3
:1003EB005CB4030D900001120175FEF452B1EE42A4
:1003FB00B2EF6404704312015CFE700B90000112AB
:10040B000175F452B352B4EEB4010B90000112011A
:10041B007542B3F452B412015CB4020A900001129B
:10042B00017542B342B412015CB4030D900001128A
:10043B000175FEF452B3EE42B4EF64057043120142
:10044B005CFF700B900001120175F452C952CAEF98
:10045B00B4010B90000112017542C9F452CA12018A
:10046B005CB4020A90000112017542C942CA120122
:10047B005CB4030D900001120175FFF452C9EF42F9
:04048B00CA7F002202
:03001B0002001AC6
:01001A0032B3
:03006300020A6628
:030A6600B2903219
:10048F00AD07EDD3940240037F0122ED6003020517
:10049F0023C28C900002120175B40104D2A980020C
:1004AF00C2A9900001120175B40104D2B98002C231
:1004BF00B912015CFED3940340037F0222E58954F5
:1004CF00FC4EF589900003120175FFB40103538EA2
:1004DF007FEF7003438E80EFB402054389048003DE
:1004EF005389FB900004120175B40105438F0180FD
:1004FF0003538FFE9000051201B4E5F0F58C9000C8
:10050F00051201B4F58A900007120175B40102D2E9
:10051F008C7F0022ED640160030205AEC28E900055
:10052F0002120175B40104D2AB8002C2AB9000017C
:10053F00120175B40104D2BB8002C2BB12015CFE72
:10054F00C3940340037F0222E58954CF4EF589906F
:10055F000003120175FFB40103538EBFEF70034305
:10056F008E40EFB4020543894080035389BF90004A
:10057F0004120175B40105438F028003538FFD9060
:10058F0000051201B4E5F0F58D9000051201B4F5E8
:10059F008B900007120175B40102D28E7F0022EDFD
:1005AF0064027074538EEF900002120175B401054E
:1005BF0043AF04800353AFFB900003120175FED3CA
:1005CF00940240037F0222EEB40103538EFB90008E
:1005DF00031201757003438E04900003120175B46A
:1005EF000205438E088003538EF7900004120175A5
:1005FF00B40105438F048003538FFB900005120154
:10060F00B4FDACF0ECF5D68DD7900007120175B4A0
:0B061F000103438E107F00227F0222A7
:040A3B00022600008F
:10099100E4F508F509750A01F50BF50C750DA97556
:0E09A1000E9A750F01FB7A007908FF02048F91
:030A6900020991EE
:03000B0002096E79
:04096E00C0E0C0D055
:100972000527E52770020526C39410E52694274033
:0A09820009752600752700751B0398
:05098C00D0D0D0E032E4
:1008BB001209DF12001E1209AF120A69D2AF75902E
:1008CB00FF120762781C7C007D007E007F05120101
:1008DB0036E51BB40314D297120762781C7C007D9B
:1008EB00007E007F05120136C297E51B701F7D3914
:1008FB007F7F1209F07D637FBF1209F0AF1EE4FC0E
:10090B00FDFE851F0C750D0512062A8003751B0352
:04091B00C29780BD42
:1009DF007509FF7508037B007A0079087F01020211
:0109EF00CB3C
:1009CD00FEFDFBF7EFDFBF7F3F065B4F666D7D07DB
:0209DD007F6F2A
:10001E007509FF7508037B007A007908E4FF120268
:10002E00CBA2A772A6E433F5097508037B007A000C
:0B003E0079087F021202CBC2A6C2A705
:010049002294
:080A4300E4F580D2A6C2A62250
:080A4B007580FFD2A7C2A722AB
:070A53008F80D2A6C2A6228B
:070A5A008F80D2A7C2A72282
:030A6C00020A4B30
:1009F000AE05AD07120A4BAF06120A53AF05020A45
:010A00005A9B
:0F0A1200EF9009CD93FFED9009D593FD0209F008
:100A0100EF9009CD93FFED9009D5934480FD020944
:010A1100F0F4
:0807ED008F248E238D228C2144
:1007F500752507E4FFFEFDFCAB24AA23A922A82149
:10080500C31202BA7007AD24AF25020A12AF24AE97
:1008150023AD22AC21EC4D4E4F6033E525602FE42E
:100825007B0AFAF9F8120228AF03AD07AF25120AC1
:1008350012AF24AE23AD22AC21E47B0AFAF9F812FB
:0E08450002288F248E238D228C21152580BF42
:010853002282
:080854008F188E178D168C150C
:10085C0085191AE4FFFEFDFCAB18AA17A916A815FA
:10086C00C31202BA7007AD18AF1A020A12AF18AE53
:10087C0017AD16AC15EC4D4E4F6033E51A602FE4F6
:10088C007B0AFAF9F8120228AF03AD07AF1A120A65
:10089C0012AF18AE17AD16AC15E47B0AFAF9F812C4
:0E08AC0002288F188E178D168C15151A80BF16
:0108BA00221B
:08062A008F0B8E0A8D098C086C
:10063200850D0EE50C700BAD0CAF0E120A12150EE5
:100642008021E50C601DE50E6019E50C75F00A8449
:10065200ADF0AF0E120A12E50C75F00A84F50C1516
:100662000E80DFE47B0AFAF9F8AF0BAE0AAD09ACF3
:1006720008120228AF03AD07AF0E120A01E4FFFE13
:10068200FDFCAB0BAA0AA909A808C31202BA60436F
:100692008024AF0BAE0AAD09AC08EC4D4E4F60336F
:1006A200E50E602FE47B0AFAF9F8120228AF03ADD7
:1006B20007AF0E120A12AF0BAE0AAD09AC08E47B0B
:1006C2000AFAF9F81202288F0B8E0A8D098C081586
:0306D2000E80BFD8
:0106D5002202
:050A6100000000000090
:030A3F00011B0098
:1009AF007FE87E0312004AA2B2E433F5097508020C
:0D09BF007B007A0079087F031202CBD2B2D0
:0109CC002208
:0E0A2100D2B2C2B27F127E0012004AD2B222BE
:10091F00E4F514F511E4F51320B2060513E5137091
:10092F00F7E513603712000312000312000330B211
:10093F0011751201E4F51330B20B0513E5136005C1
:10094F0080F5E4F512E5136013E51425E0F514E5E1
:0E095F001242140511E511C3940840B9AF14FB
:01096D002267
:1007620078097C007D007BFF7A0A79617E007F0533
:10077200120136750E00750F00751009E4F51B1293
:100782000A21120003120003120003120003D2B264
:1007920020B242E4FF20B2040FEF70F9EF7003754C
:1007A2001B01E4FF30B2040FEF70F9EF7003751B09
:1007B20001E4F50812091FAB0EAA0FA910EF1201EE
:1007C200A274012510F510E4350FF50F0508E508B0
:1007D200C3940840DFE509250A250B250C650D6049
:0A07E20003751B027B007A00790901
:0107EC0022EA
:030000000206D61F
:0C06D600787FE4F6D8FD75812702071D2F
:10006600E709F608DFFA8046E709F208DFFA803E7C
:1000760088828C83E709F0A3DFFA8032E309F60869
:10008600DFFA8078E309F208DFFA807088828C83D1
:10009600E309F0A3DFFA806489828A83E0A3F60885
:1000A600DFFA805889828A83E0A3F208DFFA804C5F
:1000B60080D280FA80C680D4806980F28033801036
:1000C60080A680EA809A80A880DA80E280CA80339F
:1000D60089828A83ECFAE493A3C8C582C8CCC58317
:1000E600CCF0A3C8C582C8CCC583CCDFE9DEE780E7
:1000F6000D89828A83E493A3F608DFF9ECFAA9F066
:10010600EDFB2289828A83ECFAE0A3C8C582C8CCBB
:10011600C583CCF0A3C8C582C8CCC583CCDFEADED4
:10012600E880DB89828A83E493A3F208DFF980CC36
:1001360088F0EF60010E4E60C388F0ED2402B4042F
:100146000050B9F582EB2402B4040050AF232345D6
:0601560082239000B67345
:10015C00BB010689828A83E0225002E722BBFE02A1
:09016C00E32289828A83E49322D4
:10017500BB010CE58229F582E5833AF583E022503F
:1001850006E92582F8E622BBFE06E92582F8E22289
:0D019500E58229F582E5833AF583E49322A3
:1001A200BB010689828A83F0225002F722BBFE013C
:0201B200F32236
:1001B400BB0110E58229F582E5833AF583E0F5F089
:1001C400A3E0225009E92582F886F008E622BBFE66
:1001D4000AE92582F8E2F5F008E222E5832AF583AC
:0801E400E993F5F0A3E9932271
:1001EC0075F008758200EF2FFFEE33FECD33CDCCCA
:1001FC0033CCC58233C5829BED9AEC99E58298404D
:10020C000CF582EE9BFEED9AFDEC99FC0FD5F0D629
:10021C00E4CEFBE4CDFAE4CCF9A88222B800C1B953
:10022C000059BA002DEC8BF084CFCECDFCE5F0CB91
:10023C00F97818EF2FFFEE33FEED33FDEC33FCEBCA
:10024C0033FB10D703994004EB99FB0FD8E5E4F985
:10025C00FA227818EF2FFFEE33FEED33FDEC33FC72
:10026C00C933C910D7059BE99A4007EC9BFCE99A66
:10027C00F90FD8E0E4C9FAE4CCFB2275F010EF2FAB
:10028C00FFEE33FEED33FDCC33CCC833C810D707AB
:10029C009BEC9AE899400AED9BFDEC9AFCE899F8E6
:0E02AC000FD5F0DAE4CDFBE4CCFAE4C8F92279
:1002BA00EB9FF5F0EA9E42F0E99D42F0E89C45F09A
:0102CA002211
:1006E2000208BBE493A3F8E493A34003F68001F26B
:1006F20008DFF48029E493A3F85407240CC8C33319
:10070200C4540F4420C8834004F456800146F6DFE7
:10071200E4800B0102040810204080900A3BE47E32
:10072200019360BCA3FF543F30E509541FFEE493DC
:10073200A360010ECF54C025E060A840B8E493A3A3
:10074200FAE493A3F8E493A3C8C582C8CAC583CACE
:10075200F0A3C8C582C8CAC583CADFE9DEE780BE86
:010A420000B3
:00000001FF
